{
	"4thclass.sol": {
		"userRegistry": {
			"abi": [
				{
					"inputs": [
						{
							"internalType": "string",
							"name": "_name",
							"type": "string"
						},
						{
							"internalType": "address",
							"name": "_walletaddress",
							"type": "address"
						}
					],
					"name": "addPerson",
					"outputs": [],
					"stateMutability": "nonpayable",
					"type": "function"
				},
				{
					"inputs": [],
					"name": "getTotalperson",
					"outputs": [
						{
							"internalType": "uint256",
							"name": "",
							"type": "uint256"
						}
					],
					"stateMutability": "view",
					"type": "function"
				},
				{
					"inputs": [
						{
							"internalType": "uint256",
							"name": "",
							"type": "uint256"
						}
					],
					"name": "registeryList",
					"outputs": [
						{
							"internalType": "address",
							"name": "walletaddress",
							"type": "address"
						},
						{
							"internalType": "string",
							"name": "name",
							"type": "string"
						}
					],
					"stateMutability": "view",
					"type": "function"
				}
			],
			"devdoc": {
				"kind": "dev",
				"methods": {},
				"version": 1
			},
			"evm": {
				"assembly": "    /* \"4thclass.sol\":60:510  contract userRegistry{... */\n  mstore(0x40, 0x80)\n  callvalue\n  dup1\n  iszero\n  tag_1\n  jumpi\n  revert(0x00, 0x00)\ntag_1:\n  pop\n  dataSize(sub_0)\n  dup1\n  dataOffset(sub_0)\n  0x00\n  codecopy\n  0x00\n  return\nstop\n\nsub_0: assembly {\n        /* \"4thclass.sol\":60:510  contract userRegistry{... */\n      mstore(0x40, 0x80)\n      callvalue\n      dup1\n      iszero\n      tag_1\n      jumpi\n      revert(0x00, 0x00)\n    tag_1:\n      pop\n      jumpi(tag_2, lt(calldatasize, 0x04))\n      shr(0xe0, calldataload(0x00))\n      dup1\n      0x452124e9\n      eq\n      tag_3\n      jumpi\n      dup1\n      0x65733e60\n      eq\n      tag_4\n      jumpi\n      dup1\n      0xbda6f4f4\n      eq\n      tag_5\n      jumpi\n    tag_2:\n      revert(0x00, 0x00)\n        /* \"4thclass.sol\":174:203  person[] public registeryList */\n    tag_3:\n      tag_6\n      0x04\n      dup1\n      calldatasize\n      sub\n      dup2\n      add\n      swap1\n      tag_7\n      swap2\n      swap1\n      tag_8\n      jump\t// in\n    tag_7:\n      tag_9\n      jump\t// in\n    tag_6:\n      mload(0x40)\n      tag_10\n      swap3\n      swap2\n      swap1\n      tag_11\n      jump\t// in\n    tag_10:\n      mload(0x40)\n      dup1\n      swap2\n      sub\n      swap1\n      return\n        /* \"4thclass.sol\":409:507  function getTotalperson() public view returns (uint){... */\n    tag_4:\n      tag_12\n      tag_13\n      jump\t// in\n    tag_12:\n      mload(0x40)\n      tag_14\n      swap2\n      swap1\n      tag_15\n      jump\t// in\n    tag_14:\n      mload(0x40)\n      dup1\n      swap2\n      sub\n      swap1\n      return\n        /* \"4thclass.sol\":214:401  function addPerson (string memory _name, address _walletaddress) public {... */\n    tag_5:\n      tag_16\n      0x04\n      dup1\n      calldatasize\n      sub\n      dup2\n      add\n      swap1\n      tag_17\n      swap2\n      swap1\n      tag_18\n      jump\t// in\n    tag_17:\n      tag_19\n      jump\t// in\n    tag_16:\n      stop\n        /* \"4thclass.sol\":174:203  person[] public registeryList */\n    tag_9:\n      0x00\n      dup2\n      dup2\n      sload\n      dup2\n      lt\n      tag_20\n      jumpi\n      0x00\n      dup1\n      revert\n    tag_20:\n      swap1\n      0x00\n      mstore\n      keccak256(0x00, 0x20)\n      swap1\n      0x02\n      mul\n      add\n      0x00\n      swap2\n      pop\n      swap1\n      pop\n      dup1\n      0x00\n      add\n      0x00\n      swap1\n      sload\n      swap1\n      0x0100\n      exp\n      swap1\n      div\n      0xffffffffffffffffffffffffffffffffffffffff\n      and\n      swap1\n      dup1\n      0x01\n      add\n      dup1\n      sload\n      tag_22\n      swap1\n      tag_23\n      jump\t// in\n    tag_22:\n      dup1\n      0x1f\n      add\n      0x20\n      dup1\n      swap2\n      div\n      mul\n      0x20\n      add\n      mload(0x40)\n      swap1\n      dup2\n      add\n      0x40\n      mstore\n      dup1\n      swap3\n      swap2\n      swap1\n      dup2\n      dup2\n      mstore\n      0x20\n      add\n      dup3\n      dup1\n      sload\n      tag_24\n      swap1\n      tag_23\n      jump\t// in\n    tag_24:\n      dup1\n      iszero\n      tag_25\n      jumpi\n      dup1\n      0x1f\n      lt\n      tag_26\n      jumpi\n      0x0100\n      dup1\n      dup4\n      sload\n      div\n      mul\n      dup4\n      mstore\n      swap2\n      0x20\n      add\n      swap2\n      jump(tag_25)\n    tag_26:\n      dup3\n      add\n      swap2\n      swap1\n      0x00\n      mstore\n      keccak256(0x00, 0x20)\n      swap1\n    tag_27:\n      dup2\n      sload\n      dup2\n      mstore\n      swap1\n      0x01\n      add\n      swap1\n      0x20\n      add\n      dup1\n      dup4\n      gt\n      tag_27\n      jumpi\n      dup3\n      swap1\n      sub\n      0x1f\n      and\n      dup3\n      add\n      swap2\n    tag_25:\n      pop\n      pop\n      pop\n      pop\n      pop\n      swap1\n      pop\n      dup3\n      jump\t// out\n        /* \"4thclass.sol\":409:507  function getTotalperson() public view returns (uint){... */\n    tag_13:\n        /* \"4thclass.sol\":456:460  uint */\n      0x00\n        /* \"4thclass.sol\":479:492  registeryList */\n      0x00\n        /* \"4thclass.sol\":479:499  registeryList.length */\n      dup1\n      sload\n      swap1\n      pop\n        /* \"4thclass.sol\":472:499  return registeryList.length */\n      swap1\n      pop\n        /* \"4thclass.sol\":409:507  function getTotalperson() public view returns (uint){... */\n      swap1\n      jump\t// out\n        /* \"4thclass.sol\":214:401  function addPerson (string memory _name, address _walletaddress) public {... */\n    tag_19:\n        /* \"4thclass.sol\":297:320  person memory newperson */\n      0x00\n        /* \"4thclass.sol\":323:353  person ( _walletaddress,_name) */\n      mload(0x40)\n      dup1\n      0x40\n      add\n      0x40\n      mstore\n      dup1\n        /* \"4thclass.sol\":332:346  _walletaddress */\n      dup4\n        /* \"4thclass.sol\":323:353  person ( _walletaddress,_name) */\n      0xffffffffffffffffffffffffffffffffffffffff\n      and\n      dup2\n      mstore\n      0x20\n      add\n        /* \"4thclass.sol\":347:352  _name */\n      dup5\n        /* \"4thclass.sol\":323:353  person ( _walletaddress,_name) */\n      dup2\n      mstore\n      pop\n        /* \"4thclass.sol\":297:353  person memory newperson = person ( _walletaddress,_name) */\n      swap1\n      pop\n        /* \"4thclass.sol\":364:377  registeryList */\n      0x00\n        /* \"4thclass.sol\":383:392  newperson */\n      dup2\n        /* \"4thclass.sol\":364:393  registeryList.push(newperson) */\n      swap1\n      dup1\n      0x01\n      dup2\n      sload\n      add\n      dup1\n      dup3\n      sstore\n      dup1\n      swap2\n      pop\n      pop\n      0x01\n      swap1\n      sub\n      swap1\n      0x00\n      mstore\n      keccak256(0x00, 0x20)\n      swap1\n      0x02\n      mul\n      add\n      0x00\n      swap1\n      swap2\n      swap1\n      swap2\n      swap1\n      swap2\n      pop\n      0x00\n      dup3\n      add\n      mload\n      dup2\n      0x00\n      add\n      exp(0x0100, 0x00)\n      dup2\n      sload\n      dup2\n      0xffffffffffffffffffffffffffffffffffffffff\n      mul\n      not\n      and\n      swap1\n      dup4\n      0xffffffffffffffffffffffffffffffffffffffff\n      and\n      mul\n      or\n      swap1\n      sstore\n      pop\n      0x20\n      dup3\n      add\n      mload\n      dup2\n      0x01\n      add\n      swap1\n      dup2\n      tag_31\n      swap2\n      swap1\n      tag_32\n      jump\t// in\n    tag_31:\n      pop\n      pop\n      pop\n        /* \"4thclass.sol\":286:401  {... */\n      pop\n        /* \"4thclass.sol\":214:401  function addPerson (string memory _name, address _walletaddress) public {... */\n      pop\n      pop\n      jump\t// out\n        /* \"#utility.yul\":7:82   */\n    tag_33:\n        /* \"#utility.yul\":40:46   */\n      0x00\n        /* \"#utility.yul\":73:75   */\n      0x40\n        /* \"#utility.yul\":67:76   */\n      mload\n        /* \"#utility.yul\":57:76   */\n      swap1\n      pop\n        /* \"#utility.yul\":7:82   */\n      swap1\n      jump\t// out\n        /* \"#utility.yul\":88:205   */\n    tag_34:\n        /* \"#utility.yul\":197:198   */\n      0x00\n        /* \"#utility.yul\":194:195   */\n      0x00\n        /* \"#utility.yul\":187:199   */\n      revert\n        /* \"#utility.yul\":211:328   */\n    tag_35:\n        /* \"#utility.yul\":320:321   */\n      0x00\n        /* \"#utility.yul\":317:318   */\n      0x00\n        /* \"#utility.yul\":310:322   */\n      revert\n        /* \"#utility.yul\":334:411   */\n    tag_36:\n        /* \"#utility.yul\":371:378   */\n      0x00\n        /* \"#utility.yul\":400:405   */\n      dup2\n        /* \"#utility.yul\":389:405   */\n      swap1\n      pop\n        /* \"#utility.yul\":334:411   */\n      swap2\n      swap1\n      pop\n      jump\t// out\n        /* \"#utility.yul\":417:539   */\n    tag_37:\n        /* \"#utility.yul\":490:514   */\n      tag_81\n        /* \"#utility.yul\":508:513   */\n      dup2\n        /* \"#utility.yul\":490:514   */\n      tag_36\n      jump\t// in\n    tag_81:\n        /* \"#utility.yul\":483:488   */\n      dup2\n        /* \"#utility.yul\":480:515   */\n      eq\n        /* \"#utility.yul\":470:533   */\n      tag_82\n      jumpi\n        /* \"#utility.yul\":529:530   */\n      0x00\n        /* \"#utility.yul\":526:527   */\n      0x00\n        /* \"#utility.yul\":519:531   */\n      revert\n        /* \"#utility.yul\":470:533   */\n    tag_82:\n        /* \"#utility.yul\":417:539   */\n      pop\n      jump\t// out\n        /* \"#utility.yul\":545:684   */\n    tag_38:\n        /* \"#utility.yul\":591:596   */\n      0x00\n        /* \"#utility.yul\":629:635   */\n      dup2\n        /* \"#utility.yul\":616:636   */\n      calldataload\n        /* \"#utility.yul\":607:636   */\n      swap1\n      pop\n        /* \"#utility.yul\":645:678   */\n      tag_84\n        /* \"#utility.yul\":672:677   */\n      dup2\n        /* \"#utility.yul\":645:678   */\n      tag_37\n      jump\t// in\n    tag_84:\n        /* \"#utility.yul\":545:684   */\n      swap3\n      swap2\n      pop\n      pop\n      jump\t// out\n        /* \"#utility.yul\":690:1019   */\n    tag_8:\n        /* \"#utility.yul\":749:755   */\n      0x00\n        /* \"#utility.yul\":798:800   */\n      0x20\n        /* \"#utility.yul\":786:795   */\n      dup3\n        /* \"#utility.yul\":777:784   */\n      dup5\n        /* \"#utility.yul\":773:796   */\n      sub\n        /* \"#utility.yul\":769:801   */\n      slt\n        /* \"#utility.yul\":766:885   */\n      iszero\n      tag_86\n      jumpi\n        /* \"#utility.yul\":804:883   */\n      tag_87\n      tag_34\n      jump\t// in\n    tag_87:\n        /* \"#utility.yul\":766:885   */\n    tag_86:\n        /* \"#utility.yul\":924:925   */\n      0x00\n        /* \"#utility.yul\":949:1002   */\n      tag_88\n        /* \"#utility.yul\":994:1001   */\n      dup5\n        /* \"#utility.yul\":985:991   */\n      dup3\n        /* \"#utility.yul\":974:983   */\n      dup6\n        /* \"#utility.yul\":970:992   */\n      add\n        /* \"#utility.yul\":949:1002   */\n      tag_38\n      jump\t// in\n    tag_88:\n        /* \"#utility.yul\":939:1002   */\n      swap2\n      pop\n        /* \"#utility.yul\":895:1012   */\n      pop\n        /* \"#utility.yul\":690:1019   */\n      swap3\n      swap2\n      pop\n      pop\n      jump\t// out\n        /* \"#utility.yul\":1025:1151   */\n    tag_39:\n        /* \"#utility.yul\":1062:1069   */\n      0x00\n        /* \"#utility.yul\":1102:1144   */\n      0xffffffffffffffffffffffffffffffffffffffff\n        /* \"#utility.yul\":1095:1100   */\n      dup3\n        /* \"#utility.yul\":1091:1145   */\n      and\n        /* \"#utility.yul\":1080:1145   */\n      swap1\n      pop\n        /* \"#utility.yul\":1025:1151   */\n      swap2\n      swap1\n      pop\n      jump\t// out\n        /* \"#utility.yul\":1157:1253   */\n    tag_40:\n        /* \"#utility.yul\":1194:1201   */\n      0x00\n        /* \"#utility.yul\":1223:1247   */\n      tag_91\n        /* \"#utility.yul\":1241:1246   */\n      dup3\n        /* \"#utility.yul\":1223:1247   */\n      tag_39\n      jump\t// in\n    tag_91:\n        /* \"#utility.yul\":1212:1247   */\n      swap1\n      pop\n        /* \"#utility.yul\":1157:1253   */\n      swap2\n      swap1\n      pop\n      jump\t// out\n        /* \"#utility.yul\":1259:1377   */\n    tag_41:\n        /* \"#utility.yul\":1346:1370   */\n      tag_93\n        /* \"#utility.yul\":1364:1369   */\n      dup2\n        /* \"#utility.yul\":1346:1370   */\n      tag_40\n      jump\t// in\n    tag_93:\n        /* \"#utility.yul\":1341:1344   */\n      dup3\n        /* \"#utility.yul\":1334:1371   */\n      mstore\n        /* \"#utility.yul\":1259:1377   */\n      pop\n      pop\n      jump\t// out\n        /* \"#utility.yul\":1383:1482   */\n    tag_42:\n        /* \"#utility.yul\":1435:1441   */\n      0x00\n        /* \"#utility.yul\":1469:1474   */\n      dup2\n        /* \"#utility.yul\":1463:1475   */\n      mload\n        /* \"#utility.yul\":1453:1475   */\n      swap1\n      pop\n        /* \"#utility.yul\":1383:1482   */\n      swap2\n      swap1\n      pop\n      jump\t// out\n        /* \"#utility.yul\":1488:1657   */\n    tag_43:\n        /* \"#utility.yul\":1572:1583   */\n      0x00\n        /* \"#utility.yul\":1606:1612   */\n      dup3\n        /* \"#utility.yul\":1601:1604   */\n      dup3\n        /* \"#utility.yul\":1594:1613   */\n      mstore\n        /* \"#utility.yul\":1646:1650   */\n      0x20\n        /* \"#utility.yul\":1641:1644   */\n      dup3\n        /* \"#utility.yul\":1637:1651   */\n      add\n        /* \"#utility.yul\":1622:1651   */\n      swap1\n      pop\n        /* \"#utility.yul\":1488:1657   */\n      swap3\n      swap2\n      pop\n      pop\n      jump\t// out\n        /* \"#utility.yul\":1663:1802   */\n    tag_44:\n        /* \"#utility.yul\":1752:1758   */\n      dup3\n        /* \"#utility.yul\":1747:1750   */\n      dup2\n        /* \"#utility.yul\":1742:1745   */\n      dup4\n        /* \"#utility.yul\":1736:1759   */\n      mcopy\n        /* \"#utility.yul\":1793:1794   */\n      0x00\n        /* \"#utility.yul\":1784:1790   */\n      dup4\n        /* \"#utility.yul\":1779:1782   */\n      dup4\n        /* \"#utility.yul\":1775:1791   */\n      add\n        /* \"#utility.yul\":1768:1795   */\n      mstore\n        /* \"#utility.yul\":1663:1802   */\n      pop\n      pop\n      pop\n      jump\t// out\n        /* \"#utility.yul\":1808:1910   */\n    tag_45:\n        /* \"#utility.yul\":1849:1855   */\n      0x00\n        /* \"#utility.yul\":1900:1902   */\n      0x1f\n        /* \"#utility.yul\":1896:1903   */\n      not\n        /* \"#utility.yul\":1891:1893   */\n      0x1f\n        /* \"#utility.yul\":1884:1889   */\n      dup4\n        /* \"#utility.yul\":1880:1894   */\n      add\n        /* \"#utility.yul\":1876:1904   */\n      and\n        /* \"#utility.yul\":1866:1904   */\n      swap1\n      pop\n        /* \"#utility.yul\":1808:1910   */\n      swap2\n      swap1\n      pop\n      jump\t// out\n        /* \"#utility.yul\":1916:2293   */\n    tag_46:\n        /* \"#utility.yul\":2004:2007   */\n      0x00\n        /* \"#utility.yul\":2032:2071   */\n      tag_99\n        /* \"#utility.yul\":2065:2070   */\n      dup3\n        /* \"#utility.yul\":2032:2071   */\n      tag_42\n      jump\t// in\n    tag_99:\n        /* \"#utility.yul\":2087:2158   */\n      tag_100\n        /* \"#utility.yul\":2151:2157   */\n      dup2\n        /* \"#utility.yul\":2146:2149   */\n      dup6\n        /* \"#utility.yul\":2087:2158   */\n      tag_43\n      jump\t// in\n    tag_100:\n        /* \"#utility.yul\":2080:2158   */\n      swap4\n      pop\n        /* \"#utility.yul\":2167:2232   */\n      tag_101\n        /* \"#utility.yul\":2225:2231   */\n      dup2\n        /* \"#utility.yul\":2220:2223   */\n      dup6\n        /* \"#utility.yul\":2213:2217   */\n      0x20\n        /* \"#utility.yul\":2206:2211   */\n      dup7\n        /* \"#utility.yul\":2202:2218   */\n      add\n        /* \"#utility.yul\":2167:2232   */\n      tag_44\n      jump\t// in\n    tag_101:\n        /* \"#utility.yul\":2257:2286   */\n      tag_102\n        /* \"#utility.yul\":2279:2285   */\n      dup2\n        /* \"#utility.yul\":2257:2286   */\n      tag_45\n      jump\t// in\n    tag_102:\n        /* \"#utility.yul\":2252:2255   */\n      dup5\n        /* \"#utility.yul\":2248:2287   */\n      add\n        /* \"#utility.yul\":2241:2287   */\n      swap2\n      pop\n        /* \"#utility.yul\":2008:2293   */\n      pop\n        /* \"#utility.yul\":1916:2293   */\n      swap3\n      swap2\n      pop\n      pop\n      jump\t// out\n        /* \"#utility.yul\":2299:2722   */\n    tag_11:\n        /* \"#utility.yul\":2440:2444   */\n      0x00\n        /* \"#utility.yul\":2478:2480   */\n      0x40\n        /* \"#utility.yul\":2467:2476   */\n      dup3\n        /* \"#utility.yul\":2463:2481   */\n      add\n        /* \"#utility.yul\":2455:2481   */\n      swap1\n      pop\n        /* \"#utility.yul\":2491:2562   */\n      tag_104\n        /* \"#utility.yul\":2559:2560   */\n      0x00\n        /* \"#utility.yul\":2548:2557   */\n      dup4\n        /* \"#utility.yul\":2544:2561   */\n      add\n        /* \"#utility.yul\":2535:2541   */\n      dup6\n        /* \"#utility.yul\":2491:2562   */\n      tag_41\n      jump\t// in\n    tag_104:\n        /* \"#utility.yul\":2609:2618   */\n      dup2\n        /* \"#utility.yul\":2603:2607   */\n      dup2\n        /* \"#utility.yul\":2599:2619   */\n      sub\n        /* \"#utility.yul\":2594:2596   */\n      0x20\n        /* \"#utility.yul\":2583:2592   */\n      dup4\n        /* \"#utility.yul\":2579:2597   */\n      add\n        /* \"#utility.yul\":2572:2620   */\n      mstore\n        /* \"#utility.yul\":2637:2715   */\n      tag_105\n        /* \"#utility.yul\":2710:2714   */\n      dup2\n        /* \"#utility.yul\":2701:2707   */\n      dup5\n        /* \"#utility.yul\":2637:2715   */\n      tag_46\n      jump\t// in\n    tag_105:\n        /* \"#utility.yul\":2629:2715   */\n      swap1\n      pop\n        /* \"#utility.yul\":2299:2722   */\n      swap4\n      swap3\n      pop\n      pop\n      pop\n      jump\t// out\n        /* \"#utility.yul\":2728:2846   */\n    tag_47:\n        /* \"#utility.yul\":2815:2839   */\n      tag_107\n        /* \"#utility.yul\":2833:2838   */\n      dup2\n        /* \"#utility.yul\":2815:2839   */\n      tag_36\n      jump\t// in\n    tag_107:\n        /* \"#utility.yul\":2810:2813   */\n      dup3\n        /* \"#utility.yul\":2803:2840   */\n      mstore\n        /* \"#utility.yul\":2728:2846   */\n      pop\n      pop\n      jump\t// out\n        /* \"#utility.yul\":2852:3074   */\n    tag_15:\n        /* \"#utility.yul\":2945:2949   */\n      0x00\n        /* \"#utility.yul\":2983:2985   */\n      0x20\n        /* \"#utility.yul\":2972:2981   */\n      dup3\n        /* \"#utility.yul\":2968:2986   */\n      add\n        /* \"#utility.yul\":2960:2986   */\n      swap1\n      pop\n        /* \"#utility.yul\":2996:3067   */\n      tag_109\n        /* \"#utility.yul\":3064:3065   */\n      0x00\n        /* \"#utility.yul\":3053:3062   */\n      dup4\n        /* \"#utility.yul\":3049:3066   */\n      add\n        /* \"#utility.yul\":3040:3046   */\n      dup5\n        /* \"#utility.yul\":2996:3067   */\n      tag_47\n      jump\t// in\n    tag_109:\n        /* \"#utility.yul\":2852:3074   */\n      swap3\n      swap2\n      pop\n      pop\n      jump\t// out\n        /* \"#utility.yul\":3080:3197   */\n    tag_48:\n        /* \"#utility.yul\":3189:3190   */\n      0x00\n        /* \"#utility.yul\":3186:3187   */\n      0x00\n        /* \"#utility.yul\":3179:3191   */\n      revert\n        /* \"#utility.yul\":3203:3320   */\n    tag_49:\n        /* \"#utility.yul\":3312:3313   */\n      0x00\n        /* \"#utility.yul\":3309:3310   */\n      0x00\n        /* \"#utility.yul\":3302:3314   */\n      revert\n        /* \"#utility.yul\":3326:3506   */\n    tag_50:\n        /* \"#utility.yul\":3374:3451   */\n      0x4e487b7100000000000000000000000000000000000000000000000000000000\n        /* \"#utility.yul\":3371:3372   */\n      0x00\n        /* \"#utility.yul\":3364:3452   */\n      mstore\n        /* \"#utility.yul\":3471:3475   */\n      0x41\n        /* \"#utility.yul\":3468:3469   */\n      0x04\n        /* \"#utility.yul\":3461:3476   */\n      mstore\n        /* \"#utility.yul\":3495:3499   */\n      0x24\n        /* \"#utility.yul\":3492:3493   */\n      0x00\n        /* \"#utility.yul\":3485:3500   */\n      revert\n        /* \"#utility.yul\":3512:3793   */\n    tag_51:\n        /* \"#utility.yul\":3595:3622   */\n      tag_114\n        /* \"#utility.yul\":3617:3621   */\n      dup3\n        /* \"#utility.yul\":3595:3622   */\n      tag_45\n      jump\t// in\n    tag_114:\n        /* \"#utility.yul\":3587:3593   */\n      dup2\n        /* \"#utility.yul\":3583:3623   */\n      add\n        /* \"#utility.yul\":3725:3731   */\n      dup2\n        /* \"#utility.yul\":3713:3723   */\n      dup2\n        /* \"#utility.yul\":3710:3732   */\n      lt\n        /* \"#utility.yul\":3689:3707   */\n      0xffffffffffffffff\n        /* \"#utility.yul\":3677:3687   */\n      dup3\n        /* \"#utility.yul\":3674:3708   */\n      gt\n        /* \"#utility.yul\":3671:3733   */\n      or\n        /* \"#utility.yul\":3668:3756   */\n      iszero\n      tag_115\n      jumpi\n        /* \"#utility.yul\":3736:3754   */\n      tag_116\n      tag_50\n      jump\t// in\n    tag_116:\n        /* \"#utility.yul\":3668:3756   */\n    tag_115:\n        /* \"#utility.yul\":3776:3786   */\n      dup1\n        /* \"#utility.yul\":3772:3774   */\n      0x40\n        /* \"#utility.yul\":3765:3787   */\n      mstore\n        /* \"#utility.yul\":3555:3793   */\n      pop\n        /* \"#utility.yul\":3512:3793   */\n      pop\n      pop\n      jump\t// out\n        /* \"#utility.yul\":3799:3928   */\n    tag_52:\n        /* \"#utility.yul\":3833:3839   */\n      0x00\n        /* \"#utility.yul\":3860:3880   */\n      tag_118\n      tag_33\n      jump\t// in\n    tag_118:\n        /* \"#utility.yul\":3850:3880   */\n      swap1\n      pop\n        /* \"#utility.yul\":3889:3922   */\n      tag_119\n        /* \"#utility.yul\":3917:3921   */\n      dup3\n        /* \"#utility.yul\":3909:3915   */\n      dup3\n        /* \"#utility.yul\":3889:3922   */\n      tag_51\n      jump\t// in\n    tag_119:\n        /* \"#utility.yul\":3799:3928   */\n      swap2\n      swap1\n      pop\n      jump\t// out\n        /* \"#utility.yul\":3934:4242   */\n    tag_53:\n        /* \"#utility.yul\":3996:4000   */\n      0x00\n        /* \"#utility.yul\":4086:4104   */\n      0xffffffffffffffff\n        /* \"#utility.yul\":4078:4084   */\n      dup3\n        /* \"#utility.yul\":4075:4105   */\n      gt\n        /* \"#utility.yul\":4072:4128   */\n      iszero\n      tag_121\n      jumpi\n        /* \"#utility.yul\":4108:4126   */\n      tag_122\n      tag_50\n      jump\t// in\n    tag_122:\n        /* \"#utility.yul\":4072:4128   */\n    tag_121:\n        /* \"#utility.yul\":4146:4175   */\n      tag_123\n        /* \"#utility.yul\":4168:4174   */\n      dup3\n        /* \"#utility.yul\":4146:4175   */\n      tag_45\n      jump\t// in\n    tag_123:\n        /* \"#utility.yul\":4138:4175   */\n      swap1\n      pop\n        /* \"#utility.yul\":4230:4234   */\n      0x20\n        /* \"#utility.yul\":4224:4228   */\n      dup2\n        /* \"#utility.yul\":4220:4235   */\n      add\n        /* \"#utility.yul\":4212:4235   */\n      swap1\n      pop\n        /* \"#utility.yul\":3934:4242   */\n      swap2\n      swap1\n      pop\n      jump\t// out\n        /* \"#utility.yul\":4248:4396   */\n    tag_54:\n        /* \"#utility.yul\":4346:4352   */\n      dup3\n        /* \"#utility.yul\":4341:4344   */\n      dup2\n        /* \"#utility.yul\":4336:4339   */\n      dup4\n        /* \"#utility.yul\":4323:4353   */\n      calldatacopy\n        /* \"#utility.yul\":4387:4388   */\n      0x00\n        /* \"#utility.yul\":4378:4384   */\n      dup4\n        /* \"#utility.yul\":4373:4376   */\n      dup4\n        /* \"#utility.yul\":4369:4385   */\n      add\n        /* \"#utility.yul\":4362:4389   */\n      mstore\n        /* \"#utility.yul\":4248:4396   */\n      pop\n      pop\n      pop\n      jump\t// out\n        /* \"#utility.yul\":4402:4827   */\n    tag_55:\n        /* \"#utility.yul\":4480:4485   */\n      0x00\n        /* \"#utility.yul\":4505:4571   */\n      tag_126\n        /* \"#utility.yul\":4521:4570   */\n      tag_127\n        /* \"#utility.yul\":4563:4569   */\n      dup5\n        /* \"#utility.yul\":4521:4570   */\n      tag_53\n      jump\t// in\n    tag_127:\n        /* \"#utility.yul\":4505:4571   */\n      tag_52\n      jump\t// in\n    tag_126:\n        /* \"#utility.yul\":4496:4571   */\n      swap1\n      pop\n        /* \"#utility.yul\":4594:4600   */\n      dup3\n        /* \"#utility.yul\":4587:4592   */\n      dup2\n        /* \"#utility.yul\":4580:4601   */\n      mstore\n        /* \"#utility.yul\":4632:4636   */\n      0x20\n        /* \"#utility.yul\":4625:4630   */\n      dup2\n        /* \"#utility.yul\":4621:4637   */\n      add\n        /* \"#utility.yul\":4670:4673   */\n      dup5\n        /* \"#utility.yul\":4661:4667   */\n      dup5\n        /* \"#utility.yul\":4656:4659   */\n      dup5\n        /* \"#utility.yul\":4652:4668   */\n      add\n        /* \"#utility.yul\":4649:4674   */\n      gt\n        /* \"#utility.yul\":4646:4758   */\n      iszero\n      tag_128\n      jumpi\n        /* \"#utility.yul\":4677:4756   */\n      tag_129\n      tag_49\n      jump\t// in\n    tag_129:\n        /* \"#utility.yul\":4646:4758   */\n    tag_128:\n        /* \"#utility.yul\":4767:4821   */\n      tag_130\n        /* \"#utility.yul\":4814:4820   */\n      dup5\n        /* \"#utility.yul\":4809:4812   */\n      dup3\n        /* \"#utility.yul\":4804:4807   */\n      dup6\n        /* \"#utility.yul\":4767:4821   */\n      tag_54\n      jump\t// in\n    tag_130:\n        /* \"#utility.yul\":4486:4827   */\n      pop\n        /* \"#utility.yul\":4402:4827   */\n      swap4\n      swap3\n      pop\n      pop\n      pop\n      jump\t// out\n        /* \"#utility.yul\":4847:5187   */\n    tag_56:\n        /* \"#utility.yul\":4903:4908   */\n      0x00\n        /* \"#utility.yul\":4952:4955   */\n      dup3\n        /* \"#utility.yul\":4945:4949   */\n      0x1f\n        /* \"#utility.yul\":4937:4943   */\n      dup4\n        /* \"#utility.yul\":4933:4950   */\n      add\n        /* \"#utility.yul\":4929:4956   */\n      slt\n        /* \"#utility.yul\":4919:5041   */\n      tag_132\n      jumpi\n        /* \"#utility.yul\":4960:5039   */\n      tag_133\n      tag_48\n      jump\t// in\n    tag_133:\n        /* \"#utility.yul\":4919:5041   */\n    tag_132:\n        /* \"#utility.yul\":5077:5083   */\n      dup2\n        /* \"#utility.yul\":5064:5084   */\n      calldataload\n        /* \"#utility.yul\":5102:5181   */\n      tag_134\n        /* \"#utility.yul\":5177:5180   */\n      dup5\n        /* \"#utility.yul\":5169:5175   */\n      dup3\n        /* \"#utility.yul\":5162:5166   */\n      0x20\n        /* \"#utility.yul\":5154:5160   */\n      dup7\n        /* \"#utility.yul\":5150:5167   */\n      add\n        /* \"#utility.yul\":5102:5181   */\n      tag_55\n      jump\t// in\n    tag_134:\n        /* \"#utility.yul\":5093:5181   */\n      swap2\n      pop\n        /* \"#utility.yul\":4909:5187   */\n      pop\n        /* \"#utility.yul\":4847:5187   */\n      swap3\n      swap2\n      pop\n      pop\n      jump\t// out\n        /* \"#utility.yul\":5193:5315   */\n    tag_57:\n        /* \"#utility.yul\":5266:5290   */\n      tag_136\n        /* \"#utility.yul\":5284:5289   */\n      dup2\n        /* \"#utility.yul\":5266:5290   */\n      tag_40\n      jump\t// in\n    tag_136:\n        /* \"#utility.yul\":5259:5264   */\n      dup2\n        /* \"#utility.yul\":5256:5291   */\n      eq\n        /* \"#utility.yul\":5246:5309   */\n      tag_137\n      jumpi\n        /* \"#utility.yul\":5305:5306   */\n      0x00\n        /* \"#utility.yul\":5302:5303   */\n      0x00\n        /* \"#utility.yul\":5295:5307   */\n      revert\n        /* \"#utility.yul\":5246:5309   */\n    tag_137:\n        /* \"#utility.yul\":5193:5315   */\n      pop\n      jump\t// out\n        /* \"#utility.yul\":5321:5460   */\n    tag_58:\n        /* \"#utility.yul\":5367:5372   */\n      0x00\n        /* \"#utility.yul\":5405:5411   */\n      dup2\n        /* \"#utility.yul\":5392:5412   */\n      calldataload\n        /* \"#utility.yul\":5383:5412   */\n      swap1\n      pop\n        /* \"#utility.yul\":5421:5454   */\n      tag_139\n        /* \"#utility.yul\":5448:5453   */\n      dup2\n        /* \"#utility.yul\":5421:5454   */\n      tag_57\n      jump\t// in\n    tag_139:\n        /* \"#utility.yul\":5321:5460   */\n      swap3\n      swap2\n      pop\n      pop\n      jump\t// out\n        /* \"#utility.yul\":5466:6120   */\n    tag_18:\n        /* \"#utility.yul\":5544:5550   */\n      0x00\n        /* \"#utility.yul\":5552:5558   */\n      0x00\n        /* \"#utility.yul\":5601:5603   */\n      0x40\n        /* \"#utility.yul\":5589:5598   */\n      dup4\n        /* \"#utility.yul\":5580:5587   */\n      dup6\n        /* \"#utility.yul\":5576:5599   */\n      sub\n        /* \"#utility.yul\":5572:5604   */\n      slt\n        /* \"#utility.yul\":5569:5688   */\n      iszero\n      tag_141\n      jumpi\n        /* \"#utility.yul\":5607:5686   */\n      tag_142\n      tag_34\n      jump\t// in\n    tag_142:\n        /* \"#utility.yul\":5569:5688   */\n    tag_141:\n        /* \"#utility.yul\":5755:5756   */\n      0x00\n        /* \"#utility.yul\":5744:5753   */\n      dup4\n        /* \"#utility.yul\":5740:5757   */\n      add\n        /* \"#utility.yul\":5727:5758   */\n      calldataload\n        /* \"#utility.yul\":5785:5803   */\n      0xffffffffffffffff\n        /* \"#utility.yul\":5777:5783   */\n      dup2\n        /* \"#utility.yul\":5774:5804   */\n      gt\n        /* \"#utility.yul\":5771:5888   */\n      iszero\n      tag_143\n      jumpi\n        /* \"#utility.yul\":5807:5886   */\n      tag_144\n      tag_35\n      jump\t// in\n    tag_144:\n        /* \"#utility.yul\":5771:5888   */\n    tag_143:\n        /* \"#utility.yul\":5912:5975   */\n      tag_145\n        /* \"#utility.yul\":5967:5974   */\n      dup6\n        /* \"#utility.yul\":5958:5964   */\n      dup3\n        /* \"#utility.yul\":5947:5956   */\n      dup7\n        /* \"#utility.yul\":5943:5965   */\n      add\n        /* \"#utility.yul\":5912:5975   */\n      tag_56\n      jump\t// in\n    tag_145:\n        /* \"#utility.yul\":5902:5975   */\n      swap3\n      pop\n        /* \"#utility.yul\":5698:5985   */\n      pop\n        /* \"#utility.yul\":6024:6026   */\n      0x20\n        /* \"#utility.yul\":6050:6103   */\n      tag_146\n        /* \"#utility.yul\":6095:6102   */\n      dup6\n        /* \"#utility.yul\":6086:6092   */\n      dup3\n        /* \"#utility.yul\":6075:6084   */\n      dup7\n        /* \"#utility.yul\":6071:6093   */\n      add\n        /* \"#utility.yul\":6050:6103   */\n      tag_58\n      jump\t// in\n    tag_146:\n        /* \"#utility.yul\":6040:6103   */\n      swap2\n      pop\n        /* \"#utility.yul\":5995:6113   */\n      pop\n        /* \"#utility.yul\":5466:6120   */\n      swap3\n      pop\n      swap3\n      swap1\n      pop\n      jump\t// out\n        /* \"#utility.yul\":6126:6306   */\n    tag_59:\n        /* \"#utility.yul\":6174:6251   */\n      0x4e487b7100000000000000000000000000000000000000000000000000000000\n        /* \"#utility.yul\":6171:6172   */\n      0x00\n        /* \"#utility.yul\":6164:6252   */\n      mstore\n        /* \"#utility.yul\":6271:6275   */\n      0x22\n        /* \"#utility.yul\":6268:6269   */\n      0x04\n        /* \"#utility.yul\":6261:6276   */\n      mstore\n        /* \"#utility.yul\":6295:6299   */\n      0x24\n        /* \"#utility.yul\":6292:6293   */\n      0x00\n        /* \"#utility.yul\":6285:6300   */\n      revert\n        /* \"#utility.yul\":6312:6632   */\n    tag_23:\n        /* \"#utility.yul\":6356:6362   */\n      0x00\n        /* \"#utility.yul\":6393:6394   */\n      0x02\n        /* \"#utility.yul\":6387:6391   */\n      dup3\n        /* \"#utility.yul\":6383:6395   */\n      div\n        /* \"#utility.yul\":6373:6395   */\n      swap1\n      pop\n        /* \"#utility.yul\":6440:6441   */\n      0x01\n        /* \"#utility.yul\":6434:6438   */\n      dup3\n        /* \"#utility.yul\":6430:6442   */\n      and\n        /* \"#utility.yul\":6461:6479   */\n      dup1\n        /* \"#utility.yul\":6451:6532   */\n      tag_149\n      jumpi\n        /* \"#utility.yul\":6517:6521   */\n      0x7f\n        /* \"#utility.yul\":6509:6515   */\n      dup3\n        /* \"#utility.yul\":6505:6522   */\n      and\n        /* \"#utility.yul\":6495:6522   */\n      swap2\n      pop\n        /* \"#utility.yul\":6451:6532   */\n    tag_149:\n        /* \"#utility.yul\":6579:6581   */\n      0x20\n        /* \"#utility.yul\":6571:6577   */\n      dup3\n        /* \"#utility.yul\":6568:6582   */\n      lt\n        /* \"#utility.yul\":6548:6566   */\n      dup2\n        /* \"#utility.yul\":6545:6583   */\n      sub\n        /* \"#utility.yul\":6542:6626   */\n      tag_150\n      jumpi\n        /* \"#utility.yul\":6598:6616   */\n      tag_151\n      tag_59\n      jump\t// in\n    tag_151:\n        /* \"#utility.yul\":6542:6626   */\n    tag_150:\n        /* \"#utility.yul\":6363:6632   */\n      pop\n        /* \"#utility.yul\":6312:6632   */\n      swap2\n      swap1\n      pop\n      jump\t// out\n        /* \"#utility.yul\":6638:6779   */\n    tag_60:\n        /* \"#utility.yul\":6687:6691   */\n      0x00\n        /* \"#utility.yul\":6710:6713   */\n      dup2\n        /* \"#utility.yul\":6702:6713   */\n      swap1\n      pop\n        /* \"#utility.yul\":6733:6736   */\n      dup2\n        /* \"#utility.yul\":6730:6731   */\n      0x00\n        /* \"#utility.yul\":6723:6737   */\n      mstore\n        /* \"#utility.yul\":6767:6771   */\n      0x20\n        /* \"#utility.yul\":6764:6765   */\n      0x00\n        /* \"#utility.yul\":6754:6772   */\n      keccak256\n        /* \"#utility.yul\":6746:6772   */\n      swap1\n      pop\n        /* \"#utility.yul\":6638:6779   */\n      swap2\n      swap1\n      pop\n      jump\t// out\n        /* \"#utility.yul\":6785:6878   */\n    tag_61:\n        /* \"#utility.yul\":6822:6828   */\n      0x00\n        /* \"#utility.yul\":6869:6871   */\n      0x20\n        /* \"#utility.yul\":6864:6866   */\n      0x1f\n        /* \"#utility.yul\":6857:6862   */\n      dup4\n        /* \"#utility.yul\":6853:6867   */\n      add\n        /* \"#utility.yul\":6849:6872   */\n      div\n        /* \"#utility.yul\":6839:6872   */\n      swap1\n      pop\n        /* \"#utility.yul\":6785:6878   */\n      swap2\n      swap1\n      pop\n      jump\t// out\n        /* \"#utility.yul\":6884:6991   */\n    tag_62:\n        /* \"#utility.yul\":6928:6936   */\n      0x00\n        /* \"#utility.yul\":6978:6983   */\n      dup3\n        /* \"#utility.yul\":6972:6976   */\n      dup3\n        /* \"#utility.yul\":6968:6984   */\n      shl\n        /* \"#utility.yul\":6947:6984   */\n      swap1\n      pop\n        /* \"#utility.yul\":6884:6991   */\n      swap3\n      swap2\n      pop\n      pop\n      jump\t// out\n        /* \"#utility.yul\":6997:7390   */\n    tag_63:\n        /* \"#utility.yul\":7066:7072   */\n      0x00\n        /* \"#utility.yul\":7116:7117   */\n      0x08\n        /* \"#utility.yul\":7104:7114   */\n      dup4\n        /* \"#utility.yul\":7100:7118   */\n      mul\n        /* \"#utility.yul\":7139:7236   */\n      tag_156\n        /* \"#utility.yul\":7169:7235   */\n      0xffffffffffffffffffffffffffffffffffffffffffffffffffffffffffffffff\n        /* \"#utility.yul\":7158:7167   */\n      dup3\n        /* \"#utility.yul\":7139:7236   */\n      tag_62\n      jump\t// in\n    tag_156:\n        /* \"#utility.yul\":7257:7296   */\n      tag_157\n        /* \"#utility.yul\":7287:7295   */\n      dup7\n        /* \"#utility.yul\":7276:7285   */\n      dup4\n        /* \"#utility.yul\":7257:7296   */\n      tag_62\n      jump\t// in\n    tag_157:\n        /* \"#utility.yul\":7245:7296   */\n      swap6\n      pop\n        /* \"#utility.yul\":7329:7333   */\n      dup1\n        /* \"#utility.yul\":7325:7334   */\n      not\n        /* \"#utility.yul\":7318:7323   */\n      dup5\n        /* \"#utility.yul\":7314:7335   */\n      and\n        /* \"#utility.yul\":7305:7335   */\n      swap4\n      pop\n        /* \"#utility.yul\":7378:7382   */\n      dup1\n        /* \"#utility.yul\":7368:7376   */\n      dup7\n        /* \"#utility.yul\":7364:7383   */\n      and\n        /* \"#utility.yul\":7357:7362   */\n      dup5\n        /* \"#utility.yul\":7354:7384   */\n      or\n        /* \"#utility.yul\":7344:7384   */\n      swap3\n      pop\n        /* \"#utility.yul\":7073:7390   */\n      pop\n      pop\n        /* \"#utility.yul\":6997:7390   */\n      swap4\n      swap3\n      pop\n      pop\n      pop\n      jump\t// out\n        /* \"#utility.yul\":7396:7456   */\n    tag_64:\n        /* \"#utility.yul\":7424:7427   */\n      0x00\n        /* \"#utility.yul\":7445:7450   */\n      dup2\n        /* \"#utility.yul\":7438:7450   */\n      swap1\n      pop\n        /* \"#utility.yul\":7396:7456   */\n      swap2\n      swap1\n      pop\n      jump\t// out\n        /* \"#utility.yul\":7462:7604   */\n    tag_65:\n        /* \"#utility.yul\":7512:7521   */\n      0x00\n        /* \"#utility.yul\":7545:7598   */\n      tag_160\n        /* \"#utility.yul\":7563:7597   */\n      tag_161\n        /* \"#utility.yul\":7572:7596   */\n      tag_162\n        /* \"#utility.yul\":7590:7595   */\n      dup5\n        /* \"#utility.yul\":7572:7596   */\n      tag_36\n      jump\t// in\n    tag_162:\n        /* \"#utility.yul\":7563:7597   */\n      tag_64\n      jump\t// in\n    tag_161:\n        /* \"#utility.yul\":7545:7598   */\n      tag_36\n      jump\t// in\n    tag_160:\n        /* \"#utility.yul\":7532:7598   */\n      swap1\n      pop\n        /* \"#utility.yul\":7462:7604   */\n      swap2\n      swap1\n      pop\n      jump\t// out\n        /* \"#utility.yul\":7610:7685   */\n    tag_66:\n        /* \"#utility.yul\":7653:7656   */\n      0x00\n        /* \"#utility.yul\":7674:7679   */\n      dup2\n        /* \"#utility.yul\":7667:7679   */\n      swap1\n      pop\n        /* \"#utility.yul\":7610:7685   */\n      swap2\n      swap1\n      pop\n      jump\t// out\n        /* \"#utility.yul\":7691:7960   */\n    tag_67:\n        /* \"#utility.yul\":7801:7840   */\n      tag_165\n        /* \"#utility.yul\":7832:7839   */\n      dup4\n        /* \"#utility.yul\":7801:7840   */\n      tag_65\n      jump\t// in\n    tag_165:\n        /* \"#utility.yul\":7862:7953   */\n      tag_166\n        /* \"#utility.yul\":7911:7952   */\n      tag_167\n        /* \"#utility.yul\":7935:7951   */\n      dup3\n        /* \"#utility.yul\":7911:7952   */\n      tag_66\n      jump\t// in\n    tag_167:\n        /* \"#utility.yul\":7903:7909   */\n      dup5\n        /* \"#utility.yul\":7896:7900   */\n      dup5\n        /* \"#utility.yul\":7890:7901   */\n      sload\n        /* \"#utility.yul\":7862:7953   */\n      tag_63\n      jump\t// in\n    tag_166:\n        /* \"#utility.yul\":7856:7860   */\n      dup3\n        /* \"#utility.yul\":7849:7954   */\n      sstore\n        /* \"#utility.yul\":7767:7960   */\n      pop\n        /* \"#utility.yul\":7691:7960   */\n      pop\n      pop\n      pop\n      jump\t// out\n        /* \"#utility.yul\":7966:8039   */\n    tag_68:\n        /* \"#utility.yul\":8011:8014   */\n      0x00\n        /* \"#utility.yul\":8032:8033   */\n      0x00\n        /* \"#utility.yul\":8025:8033   */\n      swap1\n      pop\n        /* \"#utility.yul\":7966:8039   */\n      swap1\n      jump\t// out\n        /* \"#utility.yul\":8045:8234   */\n    tag_69:\n        /* \"#utility.yul\":8122:8154   */\n      tag_170\n      tag_68\n      jump\t// in\n    tag_170:\n        /* \"#utility.yul\":8163:8228   */\n      tag_171\n        /* \"#utility.yul\":8221:8227   */\n      dup2\n        /* \"#utility.yul\":8213:8219   */\n      dup5\n        /* \"#utility.yul\":8207:8211   */\n      dup5\n        /* \"#utility.yul\":8163:8228   */\n      tag_67\n      jump\t// in\n    tag_171:\n        /* \"#utility.yul\":8098:8234   */\n      pop\n        /* \"#utility.yul\":8045:8234   */\n      pop\n      pop\n      jump\t// out\n        /* \"#utility.yul\":8240:8426   */\n    tag_70:\n        /* \"#utility.yul\":8300:8420   */\n    tag_173:\n        /* \"#utility.yul\":8317:8320   */\n      dup2\n        /* \"#utility.yul\":8310:8315   */\n      dup2\n        /* \"#utility.yul\":8307:8321   */\n      lt\n        /* \"#utility.yul\":8300:8420   */\n      iszero\n      tag_175\n      jumpi\n        /* \"#utility.yul\":8371:8410   */\n      tag_176\n        /* \"#utility.yul\":8408:8409   */\n      0x00\n        /* \"#utility.yul\":8401:8406   */\n      dup3\n        /* \"#utility.yul\":8371:8410   */\n      tag_69\n      jump\t// in\n    tag_176:\n        /* \"#utility.yul\":8344:8345   */\n      0x01\n        /* \"#utility.yul\":8337:8342   */\n      dup2\n        /* \"#utility.yul\":8333:8346   */\n      add\n        /* \"#utility.yul\":8324:8346   */\n      swap1\n      pop\n        /* \"#utility.yul\":8300:8420   */\n      jump(tag_173)\n    tag_175:\n        /* \"#utility.yul\":8240:8426   */\n      pop\n      pop\n      jump\t// out\n        /* \"#utility.yul\":8432:8975   */\n    tag_71:\n        /* \"#utility.yul\":8533:8535   */\n      0x1f\n        /* \"#utility.yul\":8528:8531   */\n      dup3\n        /* \"#utility.yul\":8525:8536   */\n      gt\n        /* \"#utility.yul\":8522:8968   */\n      iszero\n      tag_178\n      jumpi\n        /* \"#utility.yul\":8567:8605   */\n      tag_179\n        /* \"#utility.yul\":8599:8604   */\n      dup2\n        /* \"#utility.yul\":8567:8605   */\n      tag_60\n      jump\t// in\n    tag_179:\n        /* \"#utility.yul\":8651:8680   */\n      tag_180\n        /* \"#utility.yul\":8669:8679   */\n      dup5\n        /* \"#utility.yul\":8651:8680   */\n      tag_61\n      jump\t// in\n    tag_180:\n        /* \"#utility.yul\":8641:8649   */\n      dup2\n        /* \"#utility.yul\":8637:8681   */\n      add\n        /* \"#utility.yul\":8834:8836   */\n      0x20\n        /* \"#utility.yul\":8822:8832   */\n      dup6\n        /* \"#utility.yul\":8819:8837   */\n      lt\n        /* \"#utility.yul\":8816:8865   */\n      iszero\n      tag_181\n      jumpi\n        /* \"#utility.yul\":8855:8863   */\n      dup2\n        /* \"#utility.yul\":8840:8863   */\n      swap1\n      pop\n        /* \"#utility.yul\":8816:8865   */\n    tag_181:\n        /* \"#utility.yul\":8878:8958   */\n      tag_182\n        /* \"#utility.yul\":8934:8956   */\n      tag_183\n        /* \"#utility.yul\":8952:8955   */\n      dup6\n        /* \"#utility.yul\":8934:8956   */\n      tag_61\n      jump\t// in\n    tag_183:\n        /* \"#utility.yul\":8924:8932   */\n      dup4\n        /* \"#utility.yul\":8920:8957   */\n      add\n        /* \"#utility.yul\":8907:8918   */\n      dup3\n        /* \"#utility.yul\":8878:8958   */\n      tag_70\n      jump\t// in\n    tag_182:\n        /* \"#utility.yul\":8537:8968   */\n      pop\n      pop\n        /* \"#utility.yul\":8522:8968   */\n    tag_178:\n        /* \"#utility.yul\":8432:8975   */\n      pop\n      pop\n      pop\n      jump\t// out\n        /* \"#utility.yul\":8981:9098   */\n    tag_72:\n        /* \"#utility.yul\":9035:9043   */\n      0x00\n        /* \"#utility.yul\":9085:9090   */\n      dup3\n        /* \"#utility.yul\":9079:9083   */\n      dup3\n        /* \"#utility.yul\":9075:9091   */\n      shr\n        /* \"#utility.yul\":9054:9091   */\n      swap1\n      pop\n        /* \"#utility.yul\":8981:9098   */\n      swap3\n      swap2\n      pop\n      pop\n      jump\t// out\n        /* \"#utility.yul\":9104:9273   */\n    tag_73:\n        /* \"#utility.yul\":9148:9154   */\n      0x00\n        /* \"#utility.yul\":9181:9232   */\n      tag_186\n        /* \"#utility.yul\":9229:9230   */\n      0x00\n        /* \"#utility.yul\":9225:9231   */\n      not\n        /* \"#utility.yul\":9217:9222   */\n      dup5\n        /* \"#utility.yul\":9214:9215   */\n      0x08\n        /* \"#utility.yul\":9210:9223   */\n      mul\n        /* \"#utility.yul\":9181:9232   */\n      tag_72\n      jump\t// in\n    tag_186:\n        /* \"#utility.yul\":9177:9233   */\n      not\n        /* \"#utility.yul\":9262:9266   */\n      dup1\n        /* \"#utility.yul\":9256:9260   */\n      dup4\n        /* \"#utility.yul\":9252:9267   */\n      and\n        /* \"#utility.yul\":9242:9267   */\n      swap2\n      pop\n        /* \"#utility.yul\":9155:9273   */\n      pop\n        /* \"#utility.yul\":9104:9273   */\n      swap3\n      swap2\n      pop\n      pop\n      jump\t// out\n        /* \"#utility.yul\":9278:9573   */\n    tag_74:\n        /* \"#utility.yul\":9354:9358   */\n      0x00\n        /* \"#utility.yul\":9500:9529   */\n      tag_188\n        /* \"#utility.yul\":9525:9528   */\n      dup4\n        /* \"#utility.yul\":9519:9523   */\n      dup4\n        /* \"#utility.yul\":9500:9529   */\n      tag_73\n      jump\t// in\n    tag_188:\n        /* \"#utility.yul\":9492:9529   */\n      swap2\n      pop\n        /* \"#utility.yul\":9562:9565   */\n      dup3\n        /* \"#utility.yul\":9559:9560   */\n      0x02\n        /* \"#utility.yul\":9555:9566   */\n      mul\n        /* \"#utility.yul\":9549:9553   */\n      dup3\n        /* \"#utility.yul\":9546:9567   */\n      or\n        /* \"#utility.yul\":9538:9567   */\n      swap1\n      pop\n        /* \"#utility.yul\":9278:9573   */\n      swap3\n      swap2\n      pop\n      pop\n      jump\t// out\n        /* \"#utility.yul\":9578:10973   */\n    tag_32:\n        /* \"#utility.yul\":9695:9732   */\n      tag_190\n        /* \"#utility.yul\":9728:9731   */\n      dup3\n        /* \"#utility.yul\":9695:9732   */\n      tag_42\n      jump\t// in\n    tag_190:\n        /* \"#utility.yul\":9797:9815   */\n      0xffffffffffffffff\n        /* \"#utility.yul\":9789:9795   */\n      dup2\n        /* \"#utility.yul\":9786:9816   */\n      gt\n        /* \"#utility.yul\":9783:9839   */\n      iszero\n      tag_191\n      jumpi\n        /* \"#utility.yul\":9819:9837   */\n      tag_192\n      tag_50\n      jump\t// in\n    tag_192:\n        /* \"#utility.yul\":9783:9839   */\n    tag_191:\n        /* \"#utility.yul\":9863:9901   */\n      tag_193\n        /* \"#utility.yul\":9895:9899   */\n      dup3\n        /* \"#utility.yul\":9889:9900   */\n      sload\n        /* \"#utility.yul\":9863:9901   */\n      tag_23\n      jump\t// in\n    tag_193:\n        /* \"#utility.yul\":9948:10015   */\n      tag_194\n        /* \"#utility.yul\":10008:10014   */\n      dup3\n        /* \"#utility.yul\":10000:10006   */\n      dup3\n        /* \"#utility.yul\":9994:9998   */\n      dup6\n        /* \"#utility.yul\":9948:10015   */\n      tag_71\n      jump\t// in\n    tag_194:\n        /* \"#utility.yul\":10042:10043   */\n      0x00\n        /* \"#utility.yul\":10066:10070   */\n      0x20\n        /* \"#utility.yul\":10053:10070   */\n      swap1\n      pop\n        /* \"#utility.yul\":10098:10100   */\n      0x1f\n        /* \"#utility.yul\":10090:10096   */\n      dup4\n        /* \"#utility.yul\":10087:10101   */\n      gt\n        /* \"#utility.yul\":10115:10116   */\n      0x01\n        /* \"#utility.yul\":10110:10728   */\n      dup2\n      eq\n      tag_196\n      jumpi\n        /* \"#utility.yul\":10772:10773   */\n      0x00\n        /* \"#utility.yul\":10789:10795   */\n      dup5\n        /* \"#utility.yul\":10786:10863   */\n      iszero\n      tag_197\n      jumpi\n        /* \"#utility.yul\":10838:10847   */\n      dup3\n        /* \"#utility.yul\":10833:10836   */\n      dup8\n        /* \"#utility.yul\":10829:10848   */\n      add\n        /* \"#utility.yul\":10823:10849   */\n      mload\n        /* \"#utility.yul\":10814:10849   */\n      swap1\n      pop\n        /* \"#utility.yul\":10786:10863   */\n    tag_197:\n        /* \"#utility.yul\":10889:10956   */\n      tag_198\n        /* \"#utility.yul\":10949:10955   */\n      dup6\n        /* \"#utility.yul\":10942:10947   */\n      dup3\n        /* \"#utility.yul\":10889:10956   */\n      tag_74\n      jump\t// in\n    tag_198:\n        /* \"#utility.yul\":10883:10887   */\n      dup7\n        /* \"#utility.yul\":10876:10957   */\n      sstore\n        /* \"#utility.yul\":10745:10967   */\n      pop\n        /* \"#utility.yul\":10080:10967   */\n      jump(tag_195)\n        /* \"#utility.yul\":10110:10728   */\n    tag_196:\n        /* \"#utility.yul\":10162:10166   */\n      0x1f\n        /* \"#utility.yul\":10158:10167   */\n      not\n        /* \"#utility.yul\":10150:10156   */\n      dup5\n        /* \"#utility.yul\":10146:10168   */\n      and\n        /* \"#utility.yul\":10196:10233   */\n      tag_199\n        /* \"#utility.yul\":10228:10232   */\n      dup7\n        /* \"#utility.yul\":10196:10233   */\n      tag_60\n      jump\t// in\n    tag_199:\n        /* \"#utility.yul\":10255:10256   */\n      0x00\n        /* \"#utility.yul\":10269:10477   */\n    tag_200:\n        /* \"#utility.yul\":10283:10290   */\n      dup3\n        /* \"#utility.yul\":10280:10281   */\n      dup2\n        /* \"#utility.yul\":10277:10291   */\n      lt\n        /* \"#utility.yul\":10269:10477   */\n      iszero\n      tag_202\n      jumpi\n        /* \"#utility.yul\":10362:10371   */\n      dup5\n        /* \"#utility.yul\":10357:10360   */\n      dup10\n        /* \"#utility.yul\":10353:10372   */\n      add\n        /* \"#utility.yul\":10347:10373   */\n      mload\n        /* \"#utility.yul\":10339:10345   */\n      dup3\n        /* \"#utility.yul\":10332:10374   */\n      sstore\n        /* \"#utility.yul\":10413:10414   */\n      0x01\n        /* \"#utility.yul\":10405:10411   */\n      dup3\n        /* \"#utility.yul\":10401:10415   */\n      add\n        /* \"#utility.yul\":10391:10415   */\n      swap2\n      pop\n        /* \"#utility.yul\":10460:10462   */\n      0x20\n        /* \"#utility.yul\":10449:10458   */\n      dup6\n        /* \"#utility.yul\":10445:10463   */\n      add\n        /* \"#utility.yul\":10432:10463   */\n      swap5\n      pop\n        /* \"#utility.yul\":10306:10310   */\n      0x20\n        /* \"#utility.yul\":10303:10304   */\n      dup2\n        /* \"#utility.yul\":10299:10311   */\n      add\n        /* \"#utility.yul\":10294:10311   */\n      swap1\n      pop\n        /* \"#utility.yul\":10269:10477   */\n      jump(tag_200)\n    tag_202:\n        /* \"#utility.yul\":10505:10511   */\n      dup7\n        /* \"#utility.yul\":10496:10503   */\n      dup4\n        /* \"#utility.yul\":10493:10512   */\n      lt\n        /* \"#utility.yul\":10490:10669   */\n      iszero\n      tag_203\n      jumpi\n        /* \"#utility.yul\":10563:10572   */\n      dup5\n        /* \"#utility.yul\":10558:10561   */\n      dup10\n        /* \"#utility.yul\":10554:10573   */\n      add\n        /* \"#utility.yul\":10548:10574   */\n      mload\n        /* \"#utility.yul\":10606:10654   */\n      tag_204\n        /* \"#utility.yul\":10648:10652   */\n      0x1f\n        /* \"#utility.yul\":10640:10646   */\n      dup10\n        /* \"#utility.yul\":10636:10653   */\n      and\n        /* \"#utility.yul\":10625:10634   */\n      dup3\n        /* \"#utility.yul\":10606:10654   */\n      tag_73\n      jump\t// in\n    tag_204:\n        /* \"#utility.yul\":10598:10604   */\n      dup4\n        /* \"#utility.yul\":10591:10655   */\n      sstore\n        /* \"#utility.yul\":10513:10669   */\n      pop\n        /* \"#utility.yul\":10490:10669   */\n    tag_203:\n        /* \"#utility.yul\":10715:10716   */\n      0x01\n        /* \"#utility.yul\":10711:10712   */\n      0x02\n        /* \"#utility.yul\":10703:10709   */\n      dup9\n        /* \"#utility.yul\":10699:10713   */\n      mul\n        /* \"#utility.yul\":10695:10717   */\n      add\n        /* \"#utility.yul\":10689:10693   */\n      dup9\n        /* \"#utility.yul\":10682:10718   */\n      sstore\n        /* \"#utility.yul\":10117:10728   */\n      pop\n      pop\n      pop\n        /* \"#utility.yul\":10080:10967   */\n    tag_195:\n      pop\n        /* \"#utility.yul\":9670:10973   */\n      pop\n      pop\n      pop\n        /* \"#utility.yul\":9578:10973   */\n      pop\n      pop\n      jump\t// out\n\n    auxdata: 0xa264697066735822122073ca86d4eb9de2372ffbd479c7f712ae673265ca139288cb21017939e2970a9964736f6c634300081f0033\n}\n",
				"bytecode": {
					"linkReferences": {},
					"object": "6080604052348015600e575f5ffd5b506108698061001c5f395ff3fe608060405234801561000f575f5ffd5b506004361061003f575f3560e01c8063452124e91461004357806365733e6014610074578063bda6f4f414610092575b5f5ffd5b61005d60048036038101906100589190610287565b6100ae565b60405161006b929190610361565b60405180910390f35b61007c610181565b604051610089919061039e565b60405180910390f35b6100ac60048036038101906100a7919061050d565b61018c565b005b5f81815481106100bc575f80fd5b905f5260205f2090600202015f91509050805f015f9054906101000a900473ffffffffffffffffffffffffffffffffffffffff169080600101805461010090610594565b80601f016020809104026020016040519081016040528092919081815260200182805461012c90610594565b80156101775780601f1061014e57610100808354040283529160200191610177565b820191905f5260205f20905b81548152906001019060200180831161015a57829003601f168201915b5050505050905082565b5f5f80549050905090565b5f60405180604001604052808373ffffffffffffffffffffffffffffffffffffffff1681526020018481525090505f81908060018154018082558091505060019003905f5260205f2090600202015f909190919091505f820151815f015f6101000a81548173ffffffffffffffffffffffffffffffffffffffff021916908373ffffffffffffffffffffffffffffffffffffffff160217905550602082015181600101908161023b9190610764565b505050505050565b5f604051905090565b5f5ffd5b5f5ffd5b5f819050919050565b61026681610254565b8114610270575f5ffd5b50565b5f813590506102818161025d565b92915050565b5f6020828403121561029c5761029b61024c565b5b5f6102a984828501610273565b91505092915050565b5f73ffffffffffffffffffffffffffffffffffffffff82169050919050565b5f6102db826102b2565b9050919050565b6102eb816102d1565b82525050565b5f81519050919050565b5f82825260208201905092915050565b8281835e5f83830152505050565b5f601f19601f8301169050919050565b5f610333826102f1565b61033d81856102fb565b935061034d81856020860161030b565b61035681610319565b840191505092915050565b5f6040820190506103745f8301856102e2565b81810360208301526103868184610329565b90509392505050565b61039881610254565b82525050565b5f6020820190506103b15f83018461038f565b92915050565b5f5ffd5b5f5ffd5b7f4e487b71000000000000000000000000000000000000000000000000000000005f52604160045260245ffd5b6103f582610319565b810181811067ffffffffffffffff82111715610414576104136103bf565b5b80604052505050565b5f610426610243565b905061043282826103ec565b919050565b5f67ffffffffffffffff821115610451576104506103bf565b5b61045a82610319565b9050602081019050919050565b828183375f83830152505050565b5f61048761048284610437565b61041d565b9050828152602081018484840111156104a3576104a26103bb565b5b6104ae848285610467565b509392505050565b5f82601f8301126104ca576104c96103b7565b5b81356104da848260208601610475565b91505092915050565b6104ec816102d1565b81146104f6575f5ffd5b50565b5f81359050610507816104e3565b92915050565b5f5f604083850312156105235761052261024c565b5b5f83013567ffffffffffffffff8111156105405761053f610250565b5b61054c858286016104b6565b925050602061055d858286016104f9565b9150509250929050565b7f4e487b71000000000000000000000000000000000000000000000000000000005f52602260045260245ffd5b5f60028204905060018216806105ab57607f821691505b6020821081036105be576105bd610567565b5b50919050565b5f819050815f5260205f209050919050565b5f6020601f8301049050919050565b5f82821b905092915050565b5f600883026106207fffffffffffffffffffffffffffffffffffffffffffffffffffffffffffffffff826105e5565b61062a86836105e5565b95508019841693508086168417925050509392505050565b5f819050919050565b5f61066561066061065b84610254565b610642565b610254565b9050919050565b5f819050919050565b61067e8361064b565b61069261068a8261066c565b8484546105f1565b825550505050565b5f5f905090565b6106a961069a565b6106b4818484610675565b505050565b5b818110156106d7576106cc5f826106a1565b6001810190506106ba565b5050565b601f82111561071c576106ed816105c4565b6106f6846105d6565b81016020851015610705578190505b610719610711856105d6565b8301826106b9565b50505b505050565b5f82821c905092915050565b5f61073c5f1984600802610721565b1980831691505092915050565b5f610754838361072d565b9150826002028217905092915050565b61076d826102f1565b67ffffffffffffffff811115610786576107856103bf565b5b6107908254610594565b61079b8282856106db565b5f60209050601f8311600181146107cc575f84156107ba578287015190505b6107c48582610749565b86555061082b565b601f1984166107da866105c4565b5f5b82811015610801578489015182556001820191506020850194506020810190506107dc565b8683101561081e578489015161081a601f89168261072d565b8355505b6001600288020188555050505b50505050505056fea264697066735822122073ca86d4eb9de2372ffbd479c7f712ae673265ca139288cb21017939e2970a9964736f6c634300081f0033",
					"opcodes": "PUSH1 0x80 PUSH1 0x40 MSTORE CALLVALUE DUP1 ISZERO PUSH1 0xE JUMPI PUSH0 PUSH0 REVERT JUMPDEST POP PUSH2 0x869 DUP1 PUSH2 0x1C PUSH0 CODECOPY PUSH0 RETURN INVALID PUSH1 0x80 PUSH1 0x40 MSTORE CALLVALUE DUP1 ISZERO PUSH2 0xF JUMPI PUSH0 PUSH0 REVERT JUMPDEST POP PUSH1 0x4 CALLDATASIZE LT PUSH2 0x3F JUMPI PUSH0 CALLDATALOAD PUSH1 0xE0 SHR DUP1 PUSH4 0x452124E9 EQ PUSH2 0x43 JUMPI DUP1 PUSH4 0x65733E60 EQ PUSH2 0x74 JUMPI DUP1 PUSH4 0xBDA6F4F4 EQ PUSH2 0x92 JUMPI JUMPDEST PUSH0 PUSH0 REVERT JUMPDEST PUSH2 0x5D PUSH1 0x4 DUP1 CALLDATASIZE SUB DUP2 ADD SWAP1 PUSH2 0x58 SWAP2 SWAP1 PUSH2 0x287 JUMP JUMPDEST PUSH2 0xAE JUMP JUMPDEST PUSH1 0x40 MLOAD PUSH2 0x6B SWAP3 SWAP2 SWAP1 PUSH2 0x361 JUMP JUMPDEST PUSH1 0x40 MLOAD DUP1 SWAP2 SUB SWAP1 RETURN JUMPDEST PUSH2 0x7C PUSH2 0x181 JUMP JUMPDEST PUSH1 0x40 MLOAD PUSH2 0x89 SWAP2 SWAP1 PUSH2 0x39E JUMP JUMPDEST PUSH1 0x40 MLOAD DUP1 SWAP2 SUB SWAP1 RETURN JUMPDEST PUSH2 0xAC PUSH1 0x4 DUP1 CALLDATASIZE SUB DUP2 ADD SWAP1 PUSH2 0xA7 SWAP2 SWAP1 PUSH2 0x50D JUMP JUMPDEST PUSH2 0x18C JUMP JUMPDEST STOP JUMPDEST PUSH0 DUP2 DUP2 SLOAD DUP2 LT PUSH2 0xBC JUMPI PUSH0 DUP1 REVERT JUMPDEST SWAP1 PUSH0 MSTORE PUSH1 0x20 PUSH0 KECCAK256 SWAP1 PUSH1 0x2 MUL ADD PUSH0 SWAP2 POP SWAP1 POP DUP1 PUSH0 ADD PUSH0 SWAP1 SLOAD SWAP1 PUSH2 0x100 EXP SWAP1 DIV PUSH20 0xFFFFFFFFFFFFFFFFFFFFFFFFFFFFFFFFFFFFFFFF AND SWAP1 DUP1 PUSH1 0x1 ADD DUP1 SLOAD PUSH2 0x100 SWAP1 PUSH2 0x594 JUMP JUMPDEST DUP1 PUSH1 0x1F ADD PUSH1 0x20 DUP1 SWAP2 DIV MUL PUSH1 0x20 ADD PUSH1 0x40 MLOAD SWAP1 DUP2 ADD PUSH1 0x40 MSTORE DUP1 SWAP3 SWAP2 SWAP1 DUP2 DUP2 MSTORE PUSH1 0x20 ADD DUP3 DUP1 SLOAD PUSH2 0x12C SWAP1 PUSH2 0x594 JUMP JUMPDEST DUP1 ISZERO PUSH2 0x177 JUMPI DUP1 PUSH1 0x1F LT PUSH2 0x14E JUMPI PUSH2 0x100 DUP1 DUP4 SLOAD DIV MUL DUP4 MSTORE SWAP2 PUSH1 0x20 ADD SWAP2 PUSH2 0x177 JUMP JUMPDEST DUP3 ADD SWAP2 SWAP1 PUSH0 MSTORE PUSH1 0x20 PUSH0 KECCAK256 SWAP1 JUMPDEST DUP2 SLOAD DUP2 MSTORE SWAP1 PUSH1 0x1 ADD SWAP1 PUSH1 0x20 ADD DUP1 DUP4 GT PUSH2 0x15A JUMPI DUP3 SWAP1 SUB PUSH1 0x1F AND DUP3 ADD SWAP2 JUMPDEST POP POP POP POP POP SWAP1 POP DUP3 JUMP JUMPDEST PUSH0 PUSH0 DUP1 SLOAD SWAP1 POP SWAP1 POP SWAP1 JUMP JUMPDEST PUSH0 PUSH1 0x40 MLOAD DUP1 PUSH1 0x40 ADD PUSH1 0x40 MSTORE DUP1 DUP4 PUSH20 0xFFFFFFFFFFFFFFFFFFFFFFFFFFFFFFFFFFFFFFFF AND DUP2 MSTORE PUSH1 0x20 ADD DUP5 DUP2 MSTORE POP SWAP1 POP PUSH0 DUP2 SWAP1 DUP1 PUSH1 0x1 DUP2 SLOAD ADD DUP1 DUP3 SSTORE DUP1 SWAP2 POP POP PUSH1 0x1 SWAP1 SUB SWAP1 PUSH0 MSTORE PUSH1 0x20 PUSH0 KECCAK256 SWAP1 PUSH1 0x2 MUL ADD PUSH0 SWAP1 SWAP2 SWAP1 SWAP2 SWAP1 SWAP2 POP PUSH0 DUP3 ADD MLOAD DUP2 PUSH0 ADD PUSH0 PUSH2 0x100 EXP DUP2 SLOAD DUP2 PUSH20 0xFFFFFFFFFFFFFFFFFFFFFFFFFFFFFFFFFFFFFFFF MUL NOT AND SWAP1 DUP4 PUSH20 0xFFFFFFFFFFFFFFFFFFFFFFFFFFFFFFFFFFFFFFFF AND MUL OR SWAP1 SSTORE POP PUSH1 0x20 DUP3 ADD MLOAD DUP2 PUSH1 0x1 ADD SWAP1 DUP2 PUSH2 0x23B SWAP2 SWAP1 PUSH2 0x764 JUMP JUMPDEST POP POP POP POP POP POP JUMP JUMPDEST PUSH0 PUSH1 0x40 MLOAD SWAP1 POP SWAP1 JUMP JUMPDEST PUSH0 PUSH0 REVERT JUMPDEST PUSH0 PUSH0 REVERT JUMPDEST PUSH0 DUP2 SWAP1 POP SWAP2 SWAP1 POP JUMP JUMPDEST PUSH2 0x266 DUP2 PUSH2 0x254 JUMP JUMPDEST DUP2 EQ PUSH2 0x270 JUMPI PUSH0 PUSH0 REVERT JUMPDEST POP JUMP JUMPDEST PUSH0 DUP2 CALLDATALOAD SWAP1 POP PUSH2 0x281 DUP2 PUSH2 0x25D JUMP JUMPDEST SWAP3 SWAP2 POP POP JUMP JUMPDEST PUSH0 PUSH1 0x20 DUP3 DUP5 SUB SLT ISZERO PUSH2 0x29C JUMPI PUSH2 0x29B PUSH2 0x24C JUMP JUMPDEST JUMPDEST PUSH0 PUSH2 0x2A9 DUP5 DUP3 DUP6 ADD PUSH2 0x273 JUMP JUMPDEST SWAP2 POP POP SWAP3 SWAP2 POP POP JUMP JUMPDEST PUSH0 PUSH20 0xFFFFFFFFFFFFFFFFFFFFFFFFFFFFFFFFFFFFFFFF DUP3 AND SWAP1 POP SWAP2 SWAP1 POP JUMP JUMPDEST PUSH0 PUSH2 0x2DB DUP3 PUSH2 0x2B2 JUMP JUMPDEST SWAP1 POP SWAP2 SWAP1 POP JUMP JUMPDEST PUSH2 0x2EB DUP2 PUSH2 0x2D1 JUMP JUMPDEST DUP3 MSTORE POP POP JUMP JUMPDEST PUSH0 DUP2 MLOAD SWAP1 POP SWAP2 SWAP1 POP JUMP JUMPDEST PUSH0 DUP3 DUP3 MSTORE PUSH1 0x20 DUP3 ADD SWAP1 POP SWAP3 SWAP2 POP POP JUMP JUMPDEST DUP3 DUP2 DUP4 MCOPY PUSH0 DUP4 DUP4 ADD MSTORE POP POP POP JUMP JUMPDEST PUSH0 PUSH1 0x1F NOT PUSH1 0x1F DUP4 ADD AND SWAP1 POP SWAP2 SWAP1 POP JUMP JUMPDEST PUSH0 PUSH2 0x333 DUP3 PUSH2 0x2F1 JUMP JUMPDEST PUSH2 0x33D DUP2 DUP6 PUSH2 0x2FB JUMP JUMPDEST SWAP4 POP PUSH2 0x34D DUP2 DUP6 PUSH1 0x20 DUP7 ADD PUSH2 0x30B JUMP JUMPDEST PUSH2 0x356 DUP2 PUSH2 0x319 JUMP JUMPDEST DUP5 ADD SWAP2 POP POP SWAP3 SWAP2 POP POP JUMP JUMPDEST PUSH0 PUSH1 0x40 DUP3 ADD SWAP1 POP PUSH2 0x374 PUSH0 DUP4 ADD DUP6 PUSH2 0x2E2 JUMP JUMPDEST DUP2 DUP2 SUB PUSH1 0x20 DUP4 ADD MSTORE PUSH2 0x386 DUP2 DUP5 PUSH2 0x329 JUMP JUMPDEST SWAP1 POP SWAP4 SWAP3 POP POP POP JUMP JUMPDEST PUSH2 0x398 DUP2 PUSH2 0x254 JUMP JUMPDEST DUP3 MSTORE POP POP JUMP JUMPDEST PUSH0 PUSH1 0x20 DUP3 ADD SWAP1 POP PUSH2 0x3B1 PUSH0 DUP4 ADD DUP5 PUSH2 0x38F JUMP JUMPDEST SWAP3 SWAP2 POP POP JUMP JUMPDEST PUSH0 PUSH0 REVERT JUMPDEST PUSH0 PUSH0 REVERT JUMPDEST PUSH32 0x4E487B7100000000000000000000000000000000000000000000000000000000 PUSH0 MSTORE PUSH1 0x41 PUSH1 0x4 MSTORE PUSH1 0x24 PUSH0 REVERT JUMPDEST PUSH2 0x3F5 DUP3 PUSH2 0x319 JUMP JUMPDEST DUP2 ADD DUP2 DUP2 LT PUSH8 0xFFFFFFFFFFFFFFFF DUP3 GT OR ISZERO PUSH2 0x414 JUMPI PUSH2 0x413 PUSH2 0x3BF JUMP JUMPDEST JUMPDEST DUP1 PUSH1 0x40 MSTORE POP POP POP JUMP JUMPDEST PUSH0 PUSH2 0x426 PUSH2 0x243 JUMP JUMPDEST SWAP1 POP PUSH2 0x432 DUP3 DUP3 PUSH2 0x3EC JUMP JUMPDEST SWAP2 SWAP1 POP JUMP JUMPDEST PUSH0 PUSH8 0xFFFFFFFFFFFFFFFF DUP3 GT ISZERO PUSH2 0x451 JUMPI PUSH2 0x450 PUSH2 0x3BF JUMP JUMPDEST JUMPDEST PUSH2 0x45A DUP3 PUSH2 0x319 JUMP JUMPDEST SWAP1 POP PUSH1 0x20 DUP2 ADD SWAP1 POP SWAP2 SWAP1 POP JUMP JUMPDEST DUP3 DUP2 DUP4 CALLDATACOPY PUSH0 DUP4 DUP4 ADD MSTORE POP POP POP JUMP JUMPDEST PUSH0 PUSH2 0x487 PUSH2 0x482 DUP5 PUSH2 0x437 JUMP JUMPDEST PUSH2 0x41D JUMP JUMPDEST SWAP1 POP DUP3 DUP2 MSTORE PUSH1 0x20 DUP2 ADD DUP5 DUP5 DUP5 ADD GT ISZERO PUSH2 0x4A3 JUMPI PUSH2 0x4A2 PUSH2 0x3BB JUMP JUMPDEST JUMPDEST PUSH2 0x4AE DUP5 DUP3 DUP6 PUSH2 0x467 JUMP JUMPDEST POP SWAP4 SWAP3 POP POP POP JUMP JUMPDEST PUSH0 DUP3 PUSH1 0x1F DUP4 ADD SLT PUSH2 0x4CA JUMPI PUSH2 0x4C9 PUSH2 0x3B7 JUMP JUMPDEST JUMPDEST DUP2 CALLDATALOAD PUSH2 0x4DA DUP5 DUP3 PUSH1 0x20 DUP7 ADD PUSH2 0x475 JUMP JUMPDEST SWAP2 POP POP SWAP3 SWAP2 POP POP JUMP JUMPDEST PUSH2 0x4EC DUP2 PUSH2 0x2D1 JUMP JUMPDEST DUP2 EQ PUSH2 0x4F6 JUMPI PUSH0 PUSH0 REVERT JUMPDEST POP JUMP JUMPDEST PUSH0 DUP2 CALLDATALOAD SWAP1 POP PUSH2 0x507 DUP2 PUSH2 0x4E3 JUMP JUMPDEST SWAP3 SWAP2 POP POP JUMP JUMPDEST PUSH0 PUSH0 PUSH1 0x40 DUP4 DUP6 SUB SLT ISZERO PUSH2 0x523 JUMPI PUSH2 0x522 PUSH2 0x24C JUMP JUMPDEST JUMPDEST PUSH0 DUP4 ADD CALLDATALOAD PUSH8 0xFFFFFFFFFFFFFFFF DUP2 GT ISZERO PUSH2 0x540 JUMPI PUSH2 0x53F PUSH2 0x250 JUMP JUMPDEST JUMPDEST PUSH2 0x54C DUP6 DUP3 DUP7 ADD PUSH2 0x4B6 JUMP JUMPDEST SWAP3 POP POP PUSH1 0x20 PUSH2 0x55D DUP6 DUP3 DUP7 ADD PUSH2 0x4F9 JUMP JUMPDEST SWAP2 POP POP SWAP3 POP SWAP3 SWAP1 POP JUMP JUMPDEST PUSH32 0x4E487B7100000000000000000000000000000000000000000000000000000000 PUSH0 MSTORE PUSH1 0x22 PUSH1 0x4 MSTORE PUSH1 0x24 PUSH0 REVERT JUMPDEST PUSH0 PUSH1 0x2 DUP3 DIV SWAP1 POP PUSH1 0x1 DUP3 AND DUP1 PUSH2 0x5AB JUMPI PUSH1 0x7F DUP3 AND SWAP2 POP JUMPDEST PUSH1 0x20 DUP3 LT DUP2 SUB PUSH2 0x5BE JUMPI PUSH2 0x5BD PUSH2 0x567 JUMP JUMPDEST JUMPDEST POP SWAP2 SWAP1 POP JUMP JUMPDEST PUSH0 DUP2 SWAP1 POP DUP2 PUSH0 MSTORE PUSH1 0x20 PUSH0 KECCAK256 SWAP1 POP SWAP2 SWAP1 POP JUMP JUMPDEST PUSH0 PUSH1 0x20 PUSH1 0x1F DUP4 ADD DIV SWAP1 POP SWAP2 SWAP1 POP JUMP JUMPDEST PUSH0 DUP3 DUP3 SHL SWAP1 POP SWAP3 SWAP2 POP POP JUMP JUMPDEST PUSH0 PUSH1 0x8 DUP4 MUL PUSH2 0x620 PUSH32 0xFFFFFFFFFFFFFFFFFFFFFFFFFFFFFFFFFFFFFFFFFFFFFFFFFFFFFFFFFFFFFFFF DUP3 PUSH2 0x5E5 JUMP JUMPDEST PUSH2 0x62A DUP7 DUP4 PUSH2 0x5E5 JUMP JUMPDEST SWAP6 POP DUP1 NOT DUP5 AND SWAP4 POP DUP1 DUP7 AND DUP5 OR SWAP3 POP POP POP SWAP4 SWAP3 POP POP POP JUMP JUMPDEST PUSH0 DUP2 SWAP1 POP SWAP2 SWAP1 POP JUMP JUMPDEST PUSH0 PUSH2 0x665 PUSH2 0x660 PUSH2 0x65B DUP5 PUSH2 0x254 JUMP JUMPDEST PUSH2 0x642 JUMP JUMPDEST PUSH2 0x254 JUMP JUMPDEST SWAP1 POP SWAP2 SWAP1 POP JUMP JUMPDEST PUSH0 DUP2 SWAP1 POP SWAP2 SWAP1 POP JUMP JUMPDEST PUSH2 0x67E DUP4 PUSH2 0x64B JUMP JUMPDEST PUSH2 0x692 PUSH2 0x68A DUP3 PUSH2 0x66C JUMP JUMPDEST DUP5 DUP5 SLOAD PUSH2 0x5F1 JUMP JUMPDEST DUP3 SSTORE POP POP POP POP JUMP JUMPDEST PUSH0 PUSH0 SWAP1 POP SWAP1 JUMP JUMPDEST PUSH2 0x6A9 PUSH2 0x69A JUMP JUMPDEST PUSH2 0x6B4 DUP2 DUP5 DUP5 PUSH2 0x675 JUMP JUMPDEST POP POP POP JUMP JUMPDEST JUMPDEST DUP2 DUP2 LT ISZERO PUSH2 0x6D7 JUMPI PUSH2 0x6CC PUSH0 DUP3 PUSH2 0x6A1 JUMP JUMPDEST PUSH1 0x1 DUP2 ADD SWAP1 POP PUSH2 0x6BA JUMP JUMPDEST POP POP JUMP JUMPDEST PUSH1 0x1F DUP3 GT ISZERO PUSH2 0x71C JUMPI PUSH2 0x6ED DUP2 PUSH2 0x5C4 JUMP JUMPDEST PUSH2 0x6F6 DUP5 PUSH2 0x5D6 JUMP JUMPDEST DUP2 ADD PUSH1 0x20 DUP6 LT ISZERO PUSH2 0x705 JUMPI DUP2 SWAP1 POP JUMPDEST PUSH2 0x719 PUSH2 0x711 DUP6 PUSH2 0x5D6 JUMP JUMPDEST DUP4 ADD DUP3 PUSH2 0x6B9 JUMP JUMPDEST POP POP JUMPDEST POP POP POP JUMP JUMPDEST PUSH0 DUP3 DUP3 SHR SWAP1 POP SWAP3 SWAP2 POP POP JUMP JUMPDEST PUSH0 PUSH2 0x73C PUSH0 NOT DUP5 PUSH1 0x8 MUL PUSH2 0x721 JUMP JUMPDEST NOT DUP1 DUP4 AND SWAP2 POP POP SWAP3 SWAP2 POP POP JUMP JUMPDEST PUSH0 PUSH2 0x754 DUP4 DUP4 PUSH2 0x72D JUMP JUMPDEST SWAP2 POP DUP3 PUSH1 0x2 MUL DUP3 OR SWAP1 POP SWAP3 SWAP2 POP POP JUMP JUMPDEST PUSH2 0x76D DUP3 PUSH2 0x2F1 JUMP JUMPDEST PUSH8 0xFFFFFFFFFFFFFFFF DUP2 GT ISZERO PUSH2 0x786 JUMPI PUSH2 0x785 PUSH2 0x3BF JUMP JUMPDEST JUMPDEST PUSH2 0x790 DUP3 SLOAD PUSH2 0x594 JUMP JUMPDEST PUSH2 0x79B DUP3 DUP3 DUP6 PUSH2 0x6DB JUMP JUMPDEST PUSH0 PUSH1 0x20 SWAP1 POP PUSH1 0x1F DUP4 GT PUSH1 0x1 DUP2 EQ PUSH2 0x7CC JUMPI PUSH0 DUP5 ISZERO PUSH2 0x7BA JUMPI DUP3 DUP8 ADD MLOAD SWAP1 POP JUMPDEST PUSH2 0x7C4 DUP6 DUP3 PUSH2 0x749 JUMP JUMPDEST DUP7 SSTORE POP PUSH2 0x82B JUMP JUMPDEST PUSH1 0x1F NOT DUP5 AND PUSH2 0x7DA DUP7 PUSH2 0x5C4 JUMP JUMPDEST PUSH0 JUMPDEST DUP3 DUP2 LT ISZERO PUSH2 0x801 JUMPI DUP5 DUP10 ADD MLOAD DUP3 SSTORE PUSH1 0x1 DUP3 ADD SWAP2 POP PUSH1 0x20 DUP6 ADD SWAP5 POP PUSH1 0x20 DUP2 ADD SWAP1 POP PUSH2 0x7DC JUMP JUMPDEST DUP7 DUP4 LT ISZERO PUSH2 0x81E JUMPI DUP5 DUP10 ADD MLOAD PUSH2 0x81A PUSH1 0x1F DUP10 AND DUP3 PUSH2 0x72D JUMP JUMPDEST DUP4 SSTORE POP JUMPDEST PUSH1 0x1 PUSH1 0x2 DUP9 MUL ADD DUP9 SSTORE POP POP POP JUMPDEST POP POP POP POP POP POP JUMP INVALID LOG2 PUSH5 0x6970667358 0x22 SLT KECCAK256 PUSH20 0xCA86D4EB9DE2372FFBD479C7F712AE673265CA13 SWAP3 DUP9 0xCB 0x21 ADD PUSH26 0x39E2970A9964736F6C634300081F003300000000000000000000 "
				},
				"gasEstimates": {
					"creation": {
						"codeDepositCost": "430600",
						"executionCost": "466",
						"totalCost": "431066"
					},
					"external": {
						"addPerson(string,address)": "infinite",
						"getTotalperson()": "2439",
						"registeryList(uint256)": "infinite"
					}
				},
				"methodIdentifiers": {
					"addPerson(string,address)": "bda6f4f4",
					"getTotalperson()": "65733e60",
					"registeryList(uint256)": "452124e9"
				}
			},
			"storageLayout": {
				"storage": [
					{
						"astId": 10,
						"contract": "4thclass.sol:userRegistry",
						"label": "registeryList",
						"offset": 0,
						"slot": "0",
						"type": "t_array(t_struct(person)6_storage)dyn_storage"
					}
				],
				"types": {
					"t_address": {
						"encoding": "inplace",
						"label": "address",
						"numberOfBytes": "20"
					},
					"t_array(t_struct(person)6_storage)dyn_storage": {
						"base": "t_struct(person)6_storage",
						"encoding": "dynamic_array",
						"label": "struct userRegistry.person[]",
						"numberOfBytes": "32"
					},
					"t_string_storage": {
						"encoding": "bytes",
						"label": "string",
						"numberOfBytes": "32"
					},
					"t_struct(person)6_storage": {
						"encoding": "inplace",
						"label": "struct userRegistry.person",
						"members": [
							{
								"astId": 3,
								"contract": "4thclass.sol:userRegistry",
								"label": "walletaddress",
								"offset": 0,
								"slot": "0",
								"type": "t_address"
							},
							{
								"astId": 5,
								"contract": "4thclass.sol:userRegistry",
								"label": "name",
								"offset": 0,
								"slot": "1",
								"type": "t_string_storage"
							}
						],
						"numberOfBytes": "64"
					}
				}
			},
			"userdoc": {
				"kind": "user",
				"methods": {},
				"version": 1
			}
		}
	}
}